{
  "_format": "hh-sol-artifact-1",
  "contractName": "SimpleStorage",
  "sourceName": "contracts/SimpleStorage.sol",
  "abi": [
    {
      "inputs": [],
      "stateMutability": "nonpayable",
      "type": "constructor"
    },
    {
      "anonymous": false,
      "inputs": [
        {
          "indexed": false,
          "internalType": "uint256",
          "name": "newValue",
          "type": "uint256"
        }
      ],
      "name": "ValueChanged",
      "type": "event"
    },
    {
      "anonymous": false,
      "inputs": [
        {
          "indexed": false,
          "internalType": "uint256",
          "name": "resetValue",
          "type": "uint256"
        }
      ],
      "name": "ValueReset",
      "type": "event"
    },
    {
      "inputs": [],
      "name": "get",
      "outputs": [
        {
          "internalType": "uint256",
          "name": "",
          "type": "uint256"
        }
      ],
      "stateMutability": "view",
      "type": "function"
    },
    {
      "inputs": [],
      "name": "owner",
      "outputs": [
        {
          "internalType": "address",
          "name": "",
          "type": "address"
        }
      ],
      "stateMutability": "view",
      "type": "function"
    },
    {
      "inputs": [],
      "name": "reset",
      "outputs": [],
      "stateMutability": "nonpayable",
      "type": "function"
    },
    {
      "inputs": [
        {
          "internalType": "uint256",
          "name": "value",
          "type": "uint256"
        }
      ],
      "name": "set",
      "outputs": [],
      "stateMutability": "nonpayable",
      "type": "function"
    },
    {
      "inputs": [],
      "name": "storedValue",
      "outputs": [
        {
          "internalType": "uint256",
          "name": "",
          "type": "uint256"
        }
      ],
      "stateMutability": "view",
      "type": "function"
    }
  ],
  "bytecode": "0x608060405234801561001057600080fd5b5033600160006101000a81548173ffffffffffffffffffffffffffffffffffffffff021916908373ffffffffffffffffffffffffffffffffffffffff16021790555061047b806100616000396000f3fe608060405234801561001057600080fd5b50600436106100575760003560e01c806360fe47b11461005c5780636d4ce63c146100785780636d619daa146100965780638da5cb5b146100b4578063d826f88f146100d2575b600080fd5b610076600480360381019061007191906102ef565b6100dc565b005b6100806101ad565b60405161008d919061032b565b60405180910390f35b61009e6101b6565b6040516100ab919061032b565b60405180910390f35b6100bc6101bc565b6040516100c99190610387565b60405180910390f35b6100da6101e2565b005b600160009054906101000a900473ffffffffffffffffffffffffffffffffffffffff1673ffffffffffffffffffffffffffffffffffffffff163373ffffffffffffffffffffffffffffffffffffffff161461016c576040517f08c379a000000000000000000000000000000000000000000000000000000000815260040161016390610425565b60405180910390fd5b806000819055507f93fe6d397c74fdf1402a8b72e47b68512f0510d7b98a4bc4cbdf6ac7108b3c59816040516101a2919061032b565b60405180910390a150565b60008054905090565b60005481565b600160009054906101000a900473ffffffffffffffffffffffffffffffffffffffff1681565b600160009054906101000a900473ffffffffffffffffffffffffffffffffffffffff1673ffffffffffffffffffffffffffffffffffffffff163373ffffffffffffffffffffffffffffffffffffffff1614610272576040517f08c379a000000000000000000000000000000000000000000000000000000000815260040161026990610425565b60405180910390fd5b600080819055507f2c2dc3014902e54df2796202233cea72f851b2bdfe1c96ea111059de848bac866000546040516102aa919061032b565b60405180910390a1565b600080fd5b6000819050919050565b6102cc816102b9565b81146102d757600080fd5b50565b6000813590506102e9816102c3565b92915050565b600060208284031215610305576103046102b4565b5b6000610313848285016102da565b91505092915050565b610325816102b9565b82525050565b6000602082019050610340600083018461031c565b92915050565b600073ffffffffffffffffffffffffffffffffffffffff82169050919050565b600061037182610346565b9050919050565b61038181610366565b82525050565b600060208201905061039c6000830184610378565b92915050565b600082825260208201905092915050565b7f4f6e6c7920746865206f776e65722063616e2063616c6c20746869732066756e60008201527f6374696f6e000000000000000000000000000000000000000000000000000000602082015250565b600061040f6025836103a2565b915061041a826103b3565b604082019050919050565b6000602082019050818103600083015261043e81610402565b905091905056fea26469706673582212204690ac4d940e8de4a1aa69027e9a319bce23bf4b8ccb5a35c5c99d57286712ff64736f6c63430008180033",
  "linkReferences": {},
  "deployedLinkReferences": {}
}