{
  "_format": "hh-sol-artifact-1",
  "contractName": "AdvancedContract",
  "sourceName": "contracts/AdvancedContract.sol",
  "abi": [
    {
      "inputs": [],
      "stateMutability": "nonpayable",
      "type": "constructor"
    },
    {
      "anonymous": false,
      "inputs": [
        {
          "indexed": false,
          "internalType": "uint256",
          "name": "oldValue",
          "type": "uint256"
        },
        {
          "indexed": false,
          "internalType": "uint256",
          "name": "increment",
          "type": "uint256"
        },
        {
          "indexed": false,
          "internalType": "uint256",
          "name": "newValue",
          "type": "uint256"
        }
      ],
      "name": "Incremented",
      "type": "event"
    },
    {
      "anonymous": false,
      "inputs": [
        {
          "indexed": false,
          "internalType": "address",
          "name": "sender",
          "type": "address"
        }
      ],
      "name": "UnauthorizedAccess",
      "type": "event"
    },
    {
      "anonymous": false,
      "inputs": [
        {
          "indexed": false,
          "internalType": "uint256",
          "name": "oldValue",
          "type": "uint256"
        },
        {
          "indexed": false,
          "internalType": "uint256",
          "name": "newValue",
          "type": "uint256"
        }
      ],
      "name": "ValueUpdated",
      "type": "event"
    },
    {
      "inputs": [],
      "name": "getOwner",
      "outputs": [
        {
          "internalType": "address",
          "name": "",
          "type": "address"
        }
      ],
      "stateMutability": "view",
      "type": "function"
    },
    {
      "inputs": [],
      "name": "getValue",
      "outputs": [
        {
          "internalType": "uint256",
          "name": "",
          "type": "uint256"
        }
      ],
      "stateMutability": "view",
      "type": "function"
    },
    {
      "inputs": [],
      "name": "getValueHistory",
      "outputs": [
        {
          "internalType": "uint256[]",
          "name": "",
          "type": "uint256[]"
        }
      ],
      "stateMutability": "view",
      "type": "function"
    },
    {
      "inputs": [
        {
          "internalType": "uint256",
          "name": "increment",
          "type": "uint256"
        }
      ],
      "name": "incrementValue",
      "outputs": [],
      "stateMutability": "nonpayable",
      "type": "function"
    },
    {
      "inputs": [
        {
          "internalType": "uint256",
          "name": "newValue",
          "type": "uint256"
        }
      ],
      "name": "setValue",
      "outputs": [],
      "stateMutability": "nonpayable",
      "type": "function"
    }
  ],
  "bytecode": "0x608060405234801561001057600080fd5b5033600260006101000a81548173ffffffffffffffffffffffffffffffffffffffff021916908373ffffffffffffffffffffffffffffffffffffffff1602179055506000808190555060016000549080600181540180825580915050600190039060005260206000200160009091909190915055610922806100936000396000f3fe608060405234801561001057600080fd5b50600436106100575760003560e01c8063209652551461005c578063552410771461007a578063566da06d146100965780637adfc73f146100b2578063893d20e8146100d0575b600080fd5b6100646100ee565b60405161007191906104f9565b60405180910390f35b610094600480360381019061008f9190610545565b6100f7565b005b6100b060048036038101906100ab9190610545565b610276565b005b6100ba61045e565b6040516100c79190610630565b60405180910390f35b6100d86104b6565b6040516100e59190610693565b60405180910390f35b60008054905090565b600260009054906101000a900473ffffffffffffffffffffffffffffffffffffffff1673ffffffffffffffffffffffffffffffffffffffff163373ffffffffffffffffffffffffffffffffffffffff16146101be577fdccef964d1af084fd6d690c3e5aade13287909d74c30e0ff5d9ae3366cf594573360405161017b9190610693565b60405180910390a16040517f08c379a00000000000000000000000000000000000000000000000000000000081526004016101b590610731565b60405180910390fd5b6103e8811115610203576040517f08c379a00000000000000000000000000000000000000000000000000000000081526004016101fa9061079d565b60405180910390fd5b6000805490508160008190555060018290806001815401808255809150506001900390600052602060002001600090919091909150557f253ac2c290fb3c37b20cfd60899ed86c0c8313905edc8ca53ec8d2b69d9919ad818360405161026a9291906107bd565b60405180910390a15050565b600260009054906101000a900473ffffffffffffffffffffffffffffffffffffffff1673ffffffffffffffffffffffffffffffffffffffff163373ffffffffffffffffffffffffffffffffffffffff161461033d577fdccef964d1af084fd6d690c3e5aade13287909d74c30e0ff5d9ae3366cf59457336040516102fa9190610693565b60405180910390a16040517f08c379a000000000000000000000000000000000000000000000000000000000815260040161033490610731565b60405180910390fd5b6103e8811115610382576040517f08c379a000000000000000000000000000000000000000000000000000000000815260040161037990610832565b60405180910390fd5b6103e8816000546103939190610881565b11156103d4576040517f08c379a00000000000000000000000000000000000000000000000000000000081526004016103cb9061079d565b60405180910390fd5b600080549050816000808282546103eb9190610881565b92505081905550600160005490806001815401808255809150506001900390600052602060002001600090919091909150557f2c08326abb961e8aab2ddebdef941261bcb1ae0623171723c69769d16ba0d5738183600054604051610452939291906108b5565b60405180910390a15050565b606060018054806020026020016040519081016040528092919081815260200182805480156104ac57602002820191906000526020600020905b815481526020019060010190808311610498575b5050505050905090565b6000600260009054906101000a900473ffffffffffffffffffffffffffffffffffffffff16905090565b6000819050919050565b6104f3816104e0565b82525050565b600060208201905061050e60008301846104ea565b92915050565b600080fd5b610522816104e0565b811461052d57600080fd5b50565b60008135905061053f81610519565b92915050565b60006020828403121561055b5761055a610514565b5b600061056984828501610530565b91505092915050565b600081519050919050565b600082825260208201905092915050565b6000819050602082019050919050565b6105a7816104e0565b82525050565b60006105b9838361059e565b60208301905092915050565b6000602082019050919050565b60006105dd82610572565b6105e7818561057d565b93506105f28361058e565b8060005b8381101561062357815161060a88826105ad565b9750610615836105c5565b9250506001810190506105f6565b5085935050505092915050565b6000602082019050818103600083015261064a81846105d2565b905092915050565b600073ffffffffffffffffffffffffffffffffffffffff82169050919050565b600061067d82610652565b9050919050565b61068d81610672565b82525050565b60006020820190506106a86000830184610684565b92915050565b600082825260208201905092915050565b7f4e6f7420617574686f72697a65643a204f6e6c79206f776e65722063616e207360008201527f65742076616c7565000000000000000000000000000000000000000000000000602082015250565b600061071b6028836106ae565b9150610726826106bf565b604082019050919050565b6000602082019050818103600083015261074a8161070e565b9050919050565b7f56616c75652065786365656473206c696d697400000000000000000000000000600082015250565b60006107876013836106ae565b915061079282610751565b602082019050919050565b600060208201905081810360008301526107b68161077a565b9050919050565b60006040820190506107d260008301856104ea565b6107df60208301846104ea565b9392505050565b7f496e6372656d656e742065786365656473206c696d6974000000000000000000600082015250565b600061081c6017836106ae565b9150610827826107e6565b602082019050919050565b6000602082019050818103600083015261084b8161080f565b9050919050565b7f4e487b7100000000000000000000000000000000000000000000000000000000600052601160045260246000fd5b600061088c826104e0565b9150610897836104e0565b92508282019050808211156108af576108ae610852565b5b92915050565b60006060820190506108ca60008301866104ea565b6108d760208301856104ea565b6108e460408301846104ea565b94935050505056fea2646970667358221220910a8d0b2f5acfa337531e0627424fd9db733d367d5c041342a25db7ccff97c264736f6c63430008180033",
  "linkReferences": {},
  "deployedLinkReferences": {}
}