{
  "_format": "hh-sol-artifact-1",
  "contractName": "SecureBank",
  "sourceName": "contracts/SecureBank.sol",
  "abi": [
    {
      "inputs": [],
      "stateMutability": "nonpayable",
      "type": "constructor"
    },
    {
      "inputs": [],
      "name": "deposit",
      "outputs": [],
      "stateMutability": "payable",
      "type": "function"
    },
    {
      "inputs": [
        {
          "internalType": "address",
          "name": "account",
          "type": "address"
        }
      ],
      "name": "getBalance",
      "outputs": [
        {
          "internalType": "uint256",
          "name": "",
          "type": "uint256"
        }
      ],
      "stateMutability": "view",
      "type": "function"
    },
    {
      "inputs": [
        {
          "internalType": "uint256",
          "name": "amount",
          "type": "uint256"
        }
      ],
      "name": "withdraw",
      "outputs": [],
      "stateMutability": "nonpayable",
      "type": "function"
    },
    {
      "inputs": [],
      "name": "withdrawAll",
      "outputs": [],
      "stateMutability": "nonpayable",
      "type": "function"
    }
  ],
  "bytecode": "0x608060405234801561001057600080fd5b50336000806101000a81548173ffffffffffffffffffffffffffffffffffffffff021916908373ffffffffffffffffffffffffffffffffffffffff1602179055506109b7806100606000396000f3fe60806040526004361061003f5760003560e01c80632e1a7d4d14610044578063853828b61461006d578063d0e30db014610084578063f8b2cb4f1461008e575b600080fd5b34801561005057600080fd5b5061006b6004803603810190610066919061056f565b6100cb565b005b34801561007957600080fd5b506100826102a9565b005b61008c610450565b005b34801561009a57600080fd5b506100b560048036038101906100b091906105fa565b6104eb565b6040516100c29190610636565b60405180910390f35b80600160003373ffffffffffffffffffffffffffffffffffffffff1673ffffffffffffffffffffffffffffffffffffffff16815260200190815260200160002054101561014d576040517f08c379a0000000000000000000000000000000000000000000000000000000008152600401610144906106ae565b60405180910390fd5b80600160003373ffffffffffffffffffffffffffffffffffffffff1673ffffffffffffffffffffffffffffffffffffffff168152602001908152602001600020600082825461019c91906106fd565b9250508190555060003373ffffffffffffffffffffffffffffffffffffffff16826040516101c990610762565b60006040518083038185875af1925050503d8060008114610206576040519150601f19603f3d011682016040523d82523d6000602084013e61020b565b606091505b50509050806102a55781600160003373ffffffffffffffffffffffffffffffffffffffff1673ffffffffffffffffffffffffffffffffffffffff16815260200190815260200160002060008282546102639190610777565b925050819055506040517f08c379a000000000000000000000000000000000000000000000000000000000815260040161029c906107f7565b60405180910390fd5b5050565b60008054906101000a900473ffffffffffffffffffffffffffffffffffffffff1673ffffffffffffffffffffffffffffffffffffffff163373ffffffffffffffffffffffffffffffffffffffff1614610337576040517f08c379a000000000000000000000000000000000000000000000000000000000815260040161032e90610863565b60405180910390fd5b60004790506000811161037f576040517f08c379a0000000000000000000000000000000000000000000000000000000008152600401610376906108cf565b60405180910390fd5b60008060009054906101000a900473ffffffffffffffffffffffffffffffffffffffff1673ffffffffffffffffffffffffffffffffffffffff16826040516103c690610762565b60006040518083038185875af1925050503d8060008114610403576040519150601f19603f3d011682016040523d82523d6000602084013e610408565b606091505b505090508061044c576040517f08c379a0000000000000000000000000000000000000000000000000000000008152600401610443906107f7565b60405180910390fd5b5050565b60003411610493576040517f08c379a000000000000000000000000000000000000000000000000000000000815260040161048a90610961565b60405180910390fd5b34600160003373ffffffffffffffffffffffffffffffffffffffff1673ffffffffffffffffffffffffffffffffffffffff16815260200190815260200160002060008282546104e29190610777565b92505081905550565b6000600160008373ffffffffffffffffffffffffffffffffffffffff1673ffffffffffffffffffffffffffffffffffffffff168152602001908152602001600020549050919050565b600080fd5b6000819050919050565b61054c81610539565b811461055757600080fd5b50565b60008135905061056981610543565b92915050565b60006020828403121561058557610584610534565b5b60006105938482850161055a565b91505092915050565b600073ffffffffffffffffffffffffffffffffffffffff82169050919050565b60006105c78261059c565b9050919050565b6105d7816105bc565b81146105e257600080fd5b50565b6000813590506105f4816105ce565b92915050565b6000602082840312156106105761060f610534565b5b600061061e848285016105e5565b91505092915050565b61063081610539565b82525050565b600060208201905061064b6000830184610627565b92915050565b600082825260208201905092915050565b7f496e73756666696369656e742062616c616e6365000000000000000000000000600082015250565b6000610698601483610651565b91506106a382610662565b602082019050919050565b600060208201905081810360008301526106c78161068b565b9050919050565b7f4e487b7100000000000000000000000000000000000000000000000000000000600052601160045260246000fd5b600061070882610539565b915061071383610539565b925082820390508181111561072b5761072a6106ce565b5b92915050565b600081905092915050565b50565b600061074c600083610731565b91506107578261073c565b600082019050919050565b600061076d8261073f565b9150819050919050565b600061078282610539565b915061078d83610539565b92508282019050808211156107a5576107a46106ce565b5b92915050565b7f5769746864726177616c206661696c6564000000000000000000000000000000600082015250565b60006107e1601183610651565b91506107ec826107ab565b602082019050919050565b60006020820190508181036000830152610810816107d4565b9050919050565b7f4e6f7420617574686f72697a65643a204f6e6c79206f776e6572000000000000600082015250565b600061084d601a83610651565b915061085882610817565b602082019050919050565b6000602082019050818103600083015261087c81610840565b9050919050565b7f436f6e74726163742062616c616e6365206973207a65726f0000000000000000600082015250565b60006108b9601883610651565b91506108c482610883565b602082019050919050565b600060208201905081810360008301526108e8816108ac565b9050919050565b7f4465706f73697420616d6f756e74206d7573742062652067726561746572207460008201527f68616e207a65726f000000000000000000000000000000000000000000000000602082015250565b600061094b602883610651565b9150610956826108ef565b604082019050919050565b6000602082019050818103600083015261097a8161093e565b905091905056fea2646970667358221220fa7d05adddcbfcba6a22d68ca826b8ba8d3e20f6c25f3f5bea28897f9df4b56964736f6c63430008180033",
  "linkReferences": {},
  "deployedLinkReferences": {}
}